:2000000012C019C018C017C016C015C014C013C012C011C010C00FC00EC00DC00CC00BC0C0
:200020000AC009C008C011241FBECFE5D1E0DEBFCDBF02D0BBC0E4CFCF93DF93CDB7DEB7D8
:200040006AD084E690E09AD077D005D080E090E0DF91CF910895CF93DF93CDB7DEB70000DC
:20006000DF91CF910895CF93DF93CDB7DEB780E090E0DF91CF910895CF93DF9300D000D075
:20008000CDB7DEB79C838B838B819C81882721E0099708F420E029838B818A8385E490E007
:2000A0002981FC0120838DE490E02A81FC01208300000F900F900F900F90DF91CF910895E1
:2000C000CF93DF93CDB7DEB789E490E0FC01208189E490E02260FC01208389E490E0FC01DF
:2000E000208189E490E02460FC0120830000DF91CF910895CF93DF93CDB7DEB789E490E027
:20010000FC01208189E490E02B7FFC0120830000DF91CF910895CF93DF93CDB7DEB780E55B
:2001200090E0FC01208180E590E02064FC0120830000DF91CF910895CF93DF93CDB7DEB75E
:200140008FE490E0FC0120818FE490E02160FC0120830000DF91CF910895CF93DF93CDB755
:20016000DEB78FE490E0FC0120818FE490E0207FFC0120830000DF91CF910895CF93DF9306
:2001800000D000D0CDB7DEB79C838B838B819C819A83898395DF89819A816EDF00000F90A2
:1001A0000F900F900F90DF91CF910895F894FFCFAB
:00000001FF
