:1000000012C024C023C022C021C020C01FC01EC0F7
:100010001DC01CC01BC01AC019C018C08CC016C09F
:1000200015C014C013C011241FBECFE5D1E0DEBF40
:10003000CDBF10E0A0E6B0E0E2EBF1E002C0059039
:100040000D92A236B107D9F7ABD0B1C0D9CF089580
:1000500022D02FD063D05FD080E190E03CD061D03F
:100060008823E9F3F89462D02ED081E090E03DD06F
:100070005FD085E090E039D02AD00ED057D085E00F
:100080004CD078948CE291E030D0E9CF12D080E16E
:1000900090E021D018C0089590E080E00895AC0170
:1000A000442721E04930510508F420E025BD8ABDF0
:1000B00008958FB580648FBD87B5846087BD89B58D
:1000C000897F89BD08958FB581608FBD08958FB5F3
:1000D000807F8FBD0895AC01442721E04930510550
:1000E00008F420E025BD8ABD08959C01880F991F62
:1000F00082959295907F9827807F9827821B930BFB
:10010000880F991F880F991F820F931F880F991FBF
:100110000197F1F70895089508950895BC9AC69A35
:10012000089586B386FB882780F90895C49A0895B8
:10013000C498089508951F920F920FB60F9211243C
:100140008F93F89412BE14BA8091600081110BC095
:10015000C59A81E08093600078948F910F900FBED4
:100160000F901F90189588B3807288BBF2CF83B729
:10017000806183BF83B7886083BFAF9A83E082BB0F
:1001800081ED83BB12BE14BA89B7806189BF83B782
:10019000856083BF83B78F7E83BFBD9AC59A08955C
:1001A000E6DF87DF80E190E096DF8DDF51DFF894B6
:0201B000FFCF7F
:0201B20001004A
:00000001FF
