:1000000012C019C018C017C016C015C014C013C044
:1000100012C011C010C00FC00EC00DC00CC00BC06C
:100020000AC009C008C011241FBECFE5D1E0DEBF61
:10003000CDBF88D091C0E4CF08951BD033D075D008
:1000400071D080E190E03AD073D08823E9F375D085
:100050002DD081E090E043D072D085E090E03FD099
:1000600029D008D06AD085E05FD08CE291E037D00B
:10007000EBCF089590E080E00895AC01442721E0A3
:100080004930510508F420E025BD8DBD089589B59E
:10009000826089BD89B5846089BD089589B58B7FEB
:1000A00089BD089580B7806480BF08958FB5816051
:1000B0008FBD08958FB5807F8FBD08959C0199B540
:1000C000926099BD99B5946099BDA901442781E0DA
:1000D0004930510508F480E085BD2DBD08959C018F
:1000E00022953295307F3227207F322793B7906157
:1000F00093BF93B7986093BF332311F0AF9A32BB8D
:1001000023BB12BE14BA83B7856083BF83B78F7ECB
:1001100083BF08B604FEFDCF83B78A7F83BF12BEBC
:1001200014BA0895089508950895BC9AC69A08953A
:1001300086B386FB882780F90895C49A0895C498E9
:1001400008950895F2DFF9DF88EE93E0C8DFF7DF66
:0C01500088EE93E0C4DFF7CFF894FFCFF7
:00000001FF
