:1000000012C024C023C022C021C020C01FC01EC0F7
:100010001DC01CC01BC03FC019C018C0C1C016C045
:1000200015C014C013C011241FBECFE5D1E0DEBF40
:10003000CDBF10E0A0E6B0E0ECE1F2E002C0059038
:100040000D92A236B107D9F7E0D0E6C0D9CF089516
:1000500031D064D098D094D080E190E071D096D027
:100060008823E9F3F89497D063D081E090E072D0D0
:1000700094D085E090E06ED05FD023D08CD085E026
:1000800081D078948CE291E065D0E9CF47D080E1CF
:1000900090E056D04DC01F920F920FB60F921124D0
:1000A0008F9385B78F7D85BF8F910F900FBE0F9077
:1000B0001F901895339A87B187B986B1836086B946
:1000C0000895379A85B7806285BF85B7886085BFF8
:1000D0007894369A85B7806285BF889585B78F7D7D
:1000E00085BF05B605FEFDCF24B195B1892F90E0FF
:1000F0000024969587950794969587950794982F51
:10010000802D820F911D0895AC01442721E04930D4
:10011000510508F420E025BD8ABD08958FB580649F
:100120008FBD87B5846087BD89B5897F89BD0895F6
:100130008FB581608FBD08958FB5807F8FBD089585
:10014000AC01442721E04930510508F420E025BDE9
:100150008ABD08959C01880F991F82959295907F82
:100160009827807F9827821B930B880F991F880FF1
:10017000991F820F931F880F991F0197F1F7089518
:10018000089508950895BC9AC69A089586B386FB8B
:10019000882780F90895C49A0895C4980895089509
:1001A0001F920F920FB60F9211248F93F89412BEE4
:1001B00014BA8091600081110BC0C39A81E08093D2
:1001C000600078948F910F900FBE0F901F9018953C
:1001D00088B3887088BBF2CF83B7806183BF83B751
:1001E000886083BFAF9A83E082BB81ED83BB12BE80
:1001F00014BA89B7806189BF83B7856083BF83B72D
:100200008F7E83BFBB9AC39A0895E6DF87DF80E1C4
:0C02100090E096DF8DDF1CDFF894FFCF3C
:02021C000100DF
:00000001FF
