:1000000012C021C020C01FC01EC01DC01CC01BC00C
:100010001AC019C018C050C016C015C0B7C013C050
:1000200012C06DC010C011241FBECFE5D1E0DEBFED
:10003000CDBF20E0A0E6B0E001C01D92A136B2071E
:10004000E1F7F9D000C1DCCF089540D062D094D060
:1000500090D08CEB92E074D092D08823E9F3F8949E
:1000600090D063D081E090E06ED08DD085E090E0BC
:100070006AD062D030D085D085E07DD078948CE293
:1000800091E061D0E9CF45D08CEB92E059D04DC0E2
:100090001DD0D49AD59A1FD0EC01CC59DF4F1BD07C
:1000A0008C179D0730F0DC9ADD9A15D08C179D07D0
:1000B000D0F7DC98DD98F3CF1F920F920FB60F9216
:1000C00011240F900FBE0F901F901895089A86B1BB
:1000D000836086B90895379A369A369BFECF24B14D
:1000E00095B1892F90E00024969587950794969571
:1000F00087950794982F802D820F911D08951F9248
:100100000F920FB60F9211240F900FBE0F901F90F9
:10011000189587B5846087BD89B5866089BDBD9A0D
:1001200089B7806889BF789408958FB5807F8FBD27
:100130008FB581608FBD08958FB5807F8FBD089585
:1001400095BD8BBD08959C01880F991F829592954E
:10015000907F9827807F9827821B930B880F991F89
:10016000880F991F820F931F880F991F0197F1F72E
:100170000895089508950895BC9AC69A089580E058
:100180000895C49A0895C498089508951F920F92EF
:100190000FB60F9211248F93F89414BA12BE809167
:1001A000600081110DC0C39A8091600081E080934E
:1001B000600078948F910F900FBE0F901F9018954C
:1001C00088B3887088BBF0CF81E08093600083B7EC
:1001D000806183BF83B7886083BFAF9A83E082BBAF
:1001E00081ED83BB14BA12BE89B7806189BF789450
:1001F00083B7856083BF83B78F7E83BFBB9AC39A63
:1002000008958DB18A618DB98AB38E608ABBDB9AFD
:100210000895DB98662369F0FC0161500196680F30
:10022000792F711D81918FB9769A8EB16E177F07E4
:10023000C9F7DB9A0895BB9AC39A6BDF8CEB92E007
:0A0240007FDF73DF25DFF894FFCFA6
:00000001FF
