:1000000012C021C020C01FC01EC01DC01CC01BC00C
:100010001AC019C018C049C016C015C0C3C013C04B
:1000200012C07CC010C011241FBECFE5D1E0DEBFDE
:10003000CDBF20E0A0E6B0E001C01D92A136B2071E
:10004000E1F705D10BC1DCCF08953ED071D0A0D02F
:100050009CD08EE090E080D09ED08823E9F3F89485
:100060009CD06FD081E090E07AD099D085E090E08C
:1000700076D06ED030D091D085E089D078948CE263
:1000800091E06DD0E9CF54D08EE090E065D059C0BA
:100090001BD0D49A04C0DC9A84E690E060D01BD0D8
:1000A0008D3B9240C0F7DC98F7CF1F920F920FB6AE
:1000B0000F9211248F9385B78F7D85BF8F910F90FD
:1000C0000FBE0F901F901895339A87B187B986B1EC
:1000D000836086B90895379A85B7806285BF85B7F2
:1000E000886085BF7894369A85B7806285BF889589
:1000F00085B78F7D85BF05B605FEFDCF24B195B1CF
:10010000892F90E00024969587950794969587957A
:100110000794982F802D820F911D08951F920F92A2
:100120000FB60F9211240F900FBE0F901F901895CD
:1001300087B5846087BDBD9A89B7806889BF789488
:1001400008958FB5807F8FBD8FB581608FBD089575
:100150008FB5807F8FBD089595BD8BBD08959C019F
:10016000880F991F82959295907F9827807F982776
:10017000821B930B880F991F880F991F820F931F63
:10018000880F991F0197F1F708950895089508952C
:10019000BC9AC69A089580E00895C49A0895C498B8
:1001A000089508951F920F920FB60F9211248F9306
:1001B000F89414BA12BE8091600081110DC0C39AE8
:1001C0008091600081E08093600078948F910F901F
:1001D0000FBE0F901F90189588B3887088BBF0CF22
:1001E00081E08093600083B7806183BF83B78860BC
:1001F00083BFAF9A83E082BB81ED83BB14BA12BE8A
:1002000089B7806189BF789483B7856083BF83B7DE
:100210008F7E83BFBB9AC39A08958DB18A618DB9D1
:100220008AB38E608ABBDB9A0895DB98662369F0F7
:10023000FC0161500196680F792F711D81918FB972
:10024000769A8EB16E177F07C9F7DB9A0895C8DFDB
:100250006FDF8EE090E080DF74DF1ADFF894FFCF6D
:00000001FF
