:1000000012C019C018C017C016C015C014C013C044
:1000100012C011C010C010C00EC00DC00CC00BC06B
:100020000AC02DC008C011241FBECFE5D1E0DEBF3D
:10003000CDBF49D06DC0E4CF1F920F920FB60F9283
:1000400011240F900FBE0F901F901895089A86B13B
:10005000836086B90895379A369A369BFECF24B1CD
:1000600095B1892F90E000249695879507949695F1
:1000700087950794982F802D820F911D08951F92C8
:100080000F920FB60F9211240F900FBE0F901F907A
:10009000189587B5846087BD89B5866089BDBD9A8E
:1000A00089B7806889BF789408958FB5807F8FBDA8
:1000B0008FB581608FBD08958FB5807F8FBD089506
:1000C00095BD8BBD0895BB9AC39AE3DF8CEB92E09C
:1000D000F7DFEBDFBBDFBFDFEC0125968C01015FB3
:1000E0001F4FD49AD59AB7DF8C179D0738F48BB37E
:1000F0008F7C8BBBB0DF8C179D07C8F380179107EF
:1001000018F4DD98DC9AEFCF8BB380638BBBEBCF19
:04011000F894FFCF91
:00000001FF
