:1000000012C024C023C022C021C020C01FC01EC0F7
:100010001DC01CC01BC01AC019C018C019C016C012
:1000200015C014C013C011241FBECFE5D1E0DEBF40
:10003000CDBF10E0A0E6B0E0E6EBF1E002C0059035
:100040000D92A236B107D9F7B2D0B3C0D9CF089577
:100050001F920F920FB60F9211248F93F89412BE35
:1000600014BA8091600081110BC0C59A81E0809321
:10007000600078948F910F900FBE0F901F9018958D
:1000800088B3807288BBF2CF83B7806183BF83B7A8
:10009000886083BFAF9A83E082BB81ED83BB12BED1
:1000A00014BA89B7806189BF83B7856083BF83B77E
:1000B0008F7E83BFBD9AC59A08951DD035D06AD072
:1000C00066D080E190E03CD068D08823E9F3F894D2
:1000D00069D02ED081E090E044D066D085E090E0F9
:1000E00040D02AD009D05ED085E053D078948CE2FD
:1000F00091E037D0E9CF089590E080E00895AC0119
:10010000442721E04930510508F420E025BD8DBD8C
:10011000089589B5826089BD89B5846089BD0895D7
:1001200089B58B7F89BD089580B7806480BF0895AD
:100130008FB581608FBD08958FB5807F8FBD089585
:100140009C0199B5926099BD99B5946099BDA9013A
:10015000442781E04930510508F480E085BD2DBD7C
:1001600008959C01880F991F82959295907F9827FA
:10017000807F9827821B930B880F991F880F991FE8
:10018000820F931F880F991F0197F1F70895089523
:1001900008950895BC9AC69A089586B386FB882769
:1001A00080F90895C49A0895C498089508956CDF5D
:0601B00084DFF894FFCF8C
:0201B600010046
:00000001FF
